S00F0000746573747474742E73726563F9
S11300000C943C000C94B2020C94DB020C94040398
S11300100C9459000C9459000C94CB040C9479045E
S11300200C94A2040C9450040C9462030C943903B1
S11300300C9459000C940C050C9459000C943B0539
S11300400C9459000C9459000C9459000C945900C8
S11300500C945900A600AE00B600BE00CE00C60047
S1130060E600D600DE00FD01140223023202500233
S1130070410265025F02620211241FBECFE5D8E08F
S1130080DEBFCDBF10E0A0E6B0E0E6EFFAE002C0CC
S113009005900D92A237B107D9F720E0A2E7B0E0AE
S11300A001C01D92AD38B207E1F70E94C5010C945E
S11300B079050C940000CF93DF93EC018C8181309F
S11300C089F018F08230D9F026C041E06A81888135
S11300D099810E94680240E06B81888199810E9425
S11300E0680219C040E06A81888199810E9468028F
S11300F041E06B81888199810E9468020CC040E0D4
S11301006A81888199810E94680240E06B818881BC
S113011099810E946802DF91CF91089580918B00AC
S1130120882309F45AC080918B008A3308F055C0A3
S1130130E0918B008E2F90E0FC01F197E930F105FE
S113014008F04BC0E65DFF4F0C94640580916B0092
S113015080936A0081E380936B00089580916B0023
S113016080936A0082E380936B00089580916B0012
S113017080936A0083E380936B00089580916B0001
S113018080936A0084E380936B00089580916B00F0
S113019080936A0086E380936B00089580916B00DE
S11301A080936A0085E380936B00089580916B00CF
S11301B080936A0088E380936B00089580916B00BC
S11301C080936A0089E380936B00089580916B00AB
S11301D080936A0087E380936B0008958091730095
S11301E081110AC083E00E94950281E680938A000F
S11301F081E080937300089580917300813041F40D
S113020082E00E94950282E680938A001092730035
S113021008958091720081110AC083E00E949C02BB
S113022081E680938C0081E0809372000895809130
S11302307200813041F482E00E949C0282E6809345
S11302408C0010927200089582E08093690085E624
S113025090E00E945B001092640080E690E00E94AF
S11302605B0084E690E00E943704089510926900D0
S113027085E690E00E945B001092640080E690E0C6
S11302800E945B0085E590E00E943704089581E0B8
S11302908093690085E690E00E945B001092640000
S11302A080E690E00E945B0085E590E00E943704C0
S11302B0089582E08093690085E690E00E945B00E7
S11302C081E08093640080E690E00E945B0080E51A
S11302D090E00E94370408951092690085E690E04A
S11302E00E945B0081E08093640080E690E00E94BD
S11302F05B0080E590E00E9437040895CF93C1E04D
S1130300C093690085E690E00E945B00C09364009E
S113031080E690E00E945B0080E590E00E94370454
S1130320CF91089581E08093690085E690E00E9472
S11303305B0080E690E00E945B0080E090E00E9419
S1130340370408951092690085E690E00E945B00EE
S113035080E690E00E945B0080E090E00E94370419
S11303600895CF93C2E0C093690085E690E00E94AF
S11303705B00C093640080E690E00E945B0080E034
S113038090E00E943704CF9108950E942D038EE8D7
S113039090E00E9407050E94F4040E94030582E095
S11303A00E9495028EEE90E00E94A80282E00E94D4
S11303B09C0289E091E00E94AD020E948D020E949D
S11303C0910283EF91E00E94340422E040E061E076
S11303D085E00E948B03109273001092720078944F
S11303E0E0916B008E2F90E0FC01F197E930F1056C
S11303F0B8F7ED5CFF4F0C94640580918A00813658
S113040081F480916B0080936A0087E380936B0092
S11304100E9459018FE59AEE0197F1F700C00000A0
S1130420DFCF0E942401DCCF80918A00813641F421
S113043080916B0080936A0087E380936B00D0CF38
S11304400E944701CDCF80918A00813641F480918A
S11304506B0080936A0087E380936B00C1CF0E9496
S11304603601BECF80918C00813641F480916B00BF
S113047080936A0087E380936B00B2CF0E94590196
S1130480AFCF80918C00813641F480916B008093D2
S11304906A0087E380936B00A3CF0E946C01A0CF16
S11304A080918C00813641F480916B0080936A00C6
S11304B087E380936B0094CF0E947E0191CF0E94CA
S11304C0A2018ECF0E9492018BCF0E94B10188CFEE
S11304D0413081F4DC011296ED91FC911397208157
S11304E081E090E002C0880F991F6A95E2F7822BA1
S11304F080830895411110C0DC011296ED91FC91A6
S11305001397208181E090E002C0880F991F6A95BB
S1130510E2F780958223808308958BB780648BBF34
S113052008958BB780688BBF08959BB79C7F9BBF52
S11305309BB7892B8BBF08959BB7937F9BBF2BB72A
S113054090E0880F991F880F991F822B8BBF089505
S11305509093790080937800089590937700809326
S1130560760008951F920F920FB60F9211242F93C5
S11305703F934F935F936F937F938F939F93AF9327
S1130580BF93EF93FF93E0917800F0917900309757
S113059009F00995FF91EF91BF91AF919F918F91D0
S11305A07F916F915F914F913F912F910F900FBE6B
S11305B00F901F9018951F920F920FB60F9211244F
S11305C02F933F934F935F936F937F938F939F9357
S11305D0AF93BF93EF93FF93E0917600F091770090
S11305E0309709F00995FF91EF91BF91AF919F91D9
S11305F08F917F916F915F914F913F912F910F90C8
S11306000FBE0F901F9018951F920F920FB60F9266
S113061011242F933F934F935F936F937F938F9303
S11306209F93AF93BF93EF93FF93E0917400F09186
S11306307500309709F00995FF91EF91BF91AF9143
S11306409F918F917F916F915F914F913F912F91E6
S11306500F900FBE0F901F9018951ABA17BA83EC1B
S113066084BB80E181BB1BBA18BA15BA8CE082BB8B
S113067008951F920F920FB60F9211242F933F9358
S11306804F935F936F937F938F939F93AF93BF9396
S1130690EF93FF93E0918400F0918500309709F087
S11306A00995FF91EF91BF91AF919F918F917F91A8
S11306B06F915F914F913F912F910F900FBE0F90CB
S11306C01F9018951F920F920FB60F9211242F931B
S11306D03F934F935F936F937F938F939F93AF93C6
S11306E0BF93EF93FF93E0918200F09183003097E2
S11306F009F00995FF91EF91BF91AF919F918F916F
S11307007F916F915F914F913F912F910F900FBE09
S11307100F901F901895823039F128F4882351F0F6
S11307208130A9F054C08430C9F158F1853009F4FE
S113073042C04DC08FB58E7F8FBD8FB58D7F8FBD6D
S11307408EB5877F8EBD8EB58F7E8EBD40C08FB532
S11307508E7F8FBD8FB58D7F8FBD8EB588608EBD2A
S11307608EB580618EBD33C08FB58E7F8FBD8FB542
S11307708D7F8FBD8EB588608EBD8EB58F7E8EBD0C
S113078026C08FB58E7F8FBD8FB582608FBD8EB52D
S113079088608EBD8EB580618EBD19C08FB58160B5
S11307A08FBD8FB582608FBD8EB588608EBD8EB5CE
S11307B080618EBD0CC08FB581608FBD8FB58260A6
S11307C08FBD8EB5877F8EBD8EB580618EBD413065
S11307D069F028F0423089F04330B1F01BC08FB586
S11307E08F7B8FBD8FB58F778FBD14C08FB580641D
S11307F08FBD8FB58F778FBD0DC08FB58F7B8FBDAC
S11308008FB580688FBD06C08FB580648FBD8FB5EE
S113081080688FBD213069F028F0223089F02330C0
S1130820B1F01BC08FB58F7E8FBD8FB58F7D8FBD0F
S113083014C08FB580618FBD8FB58F7D8FBD0DC006
S11308408FB58F7E8FBD8FB580628FBD06C08FB58B
S113085080618FBD8FB580628FBD8EB5887F8EBD60
S11308608EB5682B6EBD08959BBD8ABD08958536EF
S11308709105A8F44AB55BB5849F9001859F300D1E
S1130880949F300D11243695279536952795ABE71F
S1130890B4E10E946A059695879599BD88BD08952F
S11308A01F920F920FB60F9211242F933F934F93E1
S11308B05F936F937F938F939F93AF93BF93EF93C4
S11308C0FF93E0918000F0918100309709F0099541
S11308D0FF91EF91BF91AF919F918F917F916F9114
S11308E05F914F913F912F910F900FBE0F901F90EA
S11308F018951F920F920FB60F9211242F933F93C6
S11309004F935F936F937F938F939F93AF93BF9313
S1130910EF93FF93E0917E00F0917F00309709F010
S11309200995FF91EF91BF91AF919F918F917F9125
S11309306F915F914F913F912F910F900FBE0F9048
S11309401F9018951F920F920FB60F9211242F9398
S11309503F934F935F936F937F938F939F93AF9343
S1130960BF93EF93FF93E0917C00F0917D0030976B
S113097009F00995FF91EF91BF91AF919F918F91EC
S11309807F916F915F914F913F912F910F900FBE87
S11309900F901F9018951F920F920FB60F9211246B
S11309A02F933F934F935F936F937F938F939F9373
S11309B0AF93BF93EF93FF93E0917A00F0917B00A4
S11309C0309709F00995FF91EF91BF91AF919F91F5
S11309D08F917F916F915F914F913F912F910F90E4
S11309E00FBE0F901F9018958BB18D7F8BB98AB174
S11309F08B7F8AB986EB80BD10BC83E389B98AB149
S1130A0080618AB908958AB180688AB908959093FB
S1130A1089008093880008951F920F920FB60F9259
S1130A2011242F933F934F935F936F937F938F93EF
S1130A309F93AF93BF93EF93FF93E0918800F0915E
S1130A408900309739F08CB190E090938C008093BA
S1130A508B000995FF91EF91BF91AF919F918F9179
S1130A607F916F915F914F913F912F910F900FBEA6
S1130A700F901F9018951F920F920FB60F9211248A
S1130A802F933F934F935F936F937F938F939F9392
S1130A90AF93BF93EF93FF93E0918600F0918700AB
S1130AA0309709F00995FF91EF91BF91AF919F9114
S1130AB08F917F916F915F914F913F912F910F9003
S1130AC00FBE0F901F901895EE0FFF1F0590F49125
S1130AD0E02D0994A29FB001B39FC001A39F700DA4
S1130AE0811D1124911DB29F700D811D1124911D32
S1090AF00895F894FFCF05
S1130AF66C000001026C00060702FFFF340035009B
S1050B063300B6
S9030000FC
